:1030000039C000008AC0000088C0000086C00000EF
:1030100084C0000082C0000080C000007EC00000AC
:103020007CC000007AC0000078C00000CAC1000067
:1030300074C0000072C0000070C000006EC00000CC
:103040006CC000006AC0000028C1000066C000001B
:1030500064C0000062C0000060C000005EC00000EC
:103060005CC000005AC0000058C0000056C00000FC
:1030700054C0000011241FBECFEFD2E0DEBFCDBF91
:10308000D091FF021092FF02C4B714BE0FB6F8949D
:10309000A895809160008861809360001092600024
:1030A0000FBE3CD0F0E0E0E085919491019601F1F3
:1030B000C1FF13C0D737E1F087E78093FF028FEF9E
:1030C0009EE924E2815090402040E1F700C00000DA
:1030D0001092FF020C9400000BC0C0FF03C00C94C0
:1030E000000006C0C3FF04C0D73711F00C940000E5
:1030F00011E0A0E0B1E0E6EEFDE302C005900D9224
:10310000A439B107D9F721E0A4E9B1E001C01D92CB
:10311000A23AB207E1F7E5D164C672CF20982898A9
:1031200055985D983F984798089584E08093E9000A
:103130008091E80085FF03C08091F1000CC0809170
:10314000E8008B778093E8008091E80082FDF0CF63
:103150008EB38111F9CF089593E09093E900909197
:10316000E80095FF03C08093F10008959091E80076
:103170009E779093E8009091E80090FDF4CF9EB385
:103180009111F9CF0895FC01CB012091A00130915C
:10319000A1012617370790F0009729F42091E80045
:1031A0002E772093E80040E0009751F4411108C0C9
:1031B0008091E80082FF2FC080E00895C901F3CF1D
:1031C0002EB3222399F1253099F12091E80023FDB7
:1031D0002BC02091E80022FDEBCF2091E80020FFDA
:1031E000E3CF2091F20030E0009719F0283031054C
:1031F00058F041E02830310509F040E02091E80026
:103200002E772093E800D0CF41914093F1000197B1
:103210002F5F3F4FE9CF8EB3882341F0853041F0D7
:103220008091E80083FFC4CF81E0089582E0089593
:1032300083E0089580919A0187FF11C08091E80092
:1032400082FF06C08091E8008B778093E80003C07E
:103250008EB38111F3CF08958EB38823E1F380916B
:10326000E80080FFF9CF8091E8008E77EECF809361
:10327000E900EBEEF0E0808181608083EDEEF0E02C
:1032800010826093EC0040838091EE000895FC0171
:1032900089E080935700849108951F921FB61F9272
:1032A00011248F9381E083B980E289B916B88F9198
:1032B0001F901FBE1F901895462F572FBC01411518
:1032C00080E358076105710500F5DB01CA018F77BE
:1032D0009927AA27BB27892B8A2B8B2B09F00895C6
:1032E0008FB7F89407B600FCFDCFF999FECF93E0B5
:1032F000FA0190935700E89507B600FCFDCF91E1E5
:1033000090935700E8958FBF08950895462F572F43
:10331000BC01411580E358076105710500F5DB012B
:10332000CA018F779927AA27BB27892B8A2B8B2B3A
:1033300009F008958FB7F89407B600FCFDCFF9990E
:10334000FECF95E0FA0190935700E89507B600FC90
:10335000FDCF91E190935700E8958FBF08950895B0
:103360000F931F938B01CA0107B600FCFDCFF9999B
:10337000FECF41E0F8010C0140935700E89511247D
:103380001F910F910895FC0181E280935700849171
:10339000089589E0E1E0F0E080935700849108957A
:1033A0009FB7F89407B600FCFDCFF999FECF809542
:1033B00029E0E1E0F0E0082E20935700E8959FBF58
:1033C00008951F920F920FB60F9211242F933F93DF
:1033D0004F935F936F937F938F939F93AF93BF931D
:1033E000EF93FF938091E10080FF15C08091E20090
:1033F00080FF11C08091E2008E7F8093E200809177
:10340000E20080618093E2008091D8008062809326
:10341000D80019BC1EBA8091E10084FF25C08091BC
:10342000E20084FF21C084E089BD86E089BD09B443
:1034300000FEFDCF8091D8008F7D8093D8008091D1
:10344000E1008F7E8093E1008091E2008F7E809387
:10345000E2008091E20081608093E2008091990116
:103460008823B9F184E08EBB8091E10083FF20C006
:103470008091E20083FF1CC08091E100877F8093F0
:10348000E10082E08EBB109299018091E1008E7F75
:103490008093E1008091E2008E7F8093E200809132
:1034A000E20080618093E20042E060E080E0DFDEE5
:1034B000FF91EF91BF91AF919F918F917F916F910C
:1034C0005F914F913F912F910F900FBE0F901F90E2
:1034D00018958091E30087FD02C081E0C4CF83E0AE
:1034E000C2CFCDB7DEB72C970FB6F894DEBF0FBEB4
:1034F000CDBF1092FF0280E890E00FB6F894809361
:103500006100909361000FBE91E095BF82E085BF9E
:10351000809163008E7F809363009093940110925A
:10352000E2001092E1008091D8008F778093D8005C
:103530008091D80080688093D8008091D8008F7DDA
:103540008093D80084E089BD86E089BD09B400FE7F
:10355000FDCF1EBA1092990142E060E080E087DE64
:103560008091E1008E7F8093E1008091E200816094
:103570008093E2008091E20088608093E200809175
:10358000E0008E7F8093E000209A289A559A5D9AF9
:103590003F9A479881E080936F0083E08093810099
:1035A00028985D9A47987894E4E07E2EF3E04F2EB9
:1035B00066246394A3E02A2E312CB12CA12C89E03F
:1035C000582E80910701811117C08FE99FE0019764
:1035D000F1F700C000008091E00081608093E0007E
:1035E0009DDD88E19CE00FB6F894A895809360007B
:1035F0000FBE90936000FFCF7092E9008091E800C9
:1036000082FF22C292DD182F8534D9F4109207016F
:103610008DE0A2DD4092E9009091E8008091E80001
:103620008E778093E80095FF02C28091E80080FFCA
:1036300008C27092E9008091E8008B778093E800DF
:1036400003C288E8810F823010F0143511F46DDD6B
:10365000DFCF1035E9F21C34D9F2143721F484E4B9
:103660007BDD80E0D6CF89E5113699F21134D9F4AB
:103670005CDD89835ADD4981242F30E0322F2227F7
:10368000330F90E0880F991F822B932B092E000C8B
:10369000AA0BBB0B8093950190939601A093970181
:1036A000B0939801B5CF83E5103709F4B2CF133545
:1036B00081F48CE891E09A838983A981BA818D9104
:1036C000BA83A98349DDE981FA81E359F140A9F779
:1036D000A1CF163521F481E33FDD80E39ACF133784
:1036E00031F489E839DD84E937DD8EE192CF153692
:1036F00091F4C12CD12C7601C701B601DDDD30E893
:10370000C30ED11CE11CF11CC11440E3D406E1043A
:10371000F10491F77DCF1C3619F407DD41DE78CF37
:10372000123711F436DE75CFF501163439F0F10198
:103730001E3421F0113531F4E2E0F0E050925700F0
:10374000849167CF123631F489E506DD80E004DD2F
:1037500080E85FCF123419F0173609F0CBC0E5DCF2
:103760008F83E3DC8983E1DC082F8BEB800F8230D1
:1037700010F08FE34ECF29814F81342F3C872B8768
:10378000173609F042C0812C25C0C0909501D09019
:103790009601E0909701F0909801063401F5E82D2C
:1037A000F0E0EC29FD298491D7DC882069F052E013
:1037B000C50ED11CE11CF11CC0929501D09296015E
:1037C000E0929701F09298018624AB85BC85119711
:1037D000BC87AB87EB85FC85EF2BB9F61BCFD701F8
:1037E000C601B695A79597958795E1D2B5DC82E09D
:1037F000C80ED11CE11CF11CC0929501D09296011B
:10380000E0929701F0929801E0CF209195013091DC
:103810009601409197015091980129833A834B83F7
:103820005C83063419F4CA01B90146DDF12CE12CA0
:103830008B859C85892B49F4063409F0E9CE698192
:103840007A818B819C8162DDE3CE063481F5EE20A6
:1038500059F16BDC209195013091960140919701CF
:10386000509198012F83388749875A87582F4F2DB9
:103870006F81788589859A8573DD8F819885A98583
:10388000BA850296A11DB11D809395019093960172
:10389000A0939701B0939801E6244B855C85415035
:1038A00051095C874B87C4CF40DCF82EF5CF3DDC57
:1038B000682F8091950190919601A0919701B09108
:1038C0009801B695A7959795879579D2809195019E
:1038D00090919601A0919701B09198010296A11D37
:1038E000B11D8093950190939601A0939701B09399
:1038F0009801D3CF133499F418DC482F50E080910D
:10390000950190919601A0919701B09198018983BA
:103910009A83AB83BC83BC01CD0122DD79CE133603
:1039200019F503DCC0909501D0909601E0909701C5
:10393000F0909801482F50E0D701C601816089833B
:103940009A83AB83BC83BC01CD010ADD92E0C90E32
:10395000D11CE11CF11CC0929501D0929601E0921D
:103960009701F092980154CE1D3679F4209195017B
:1039700030919601409197015091980129833A83A3
:103980004B835C83CA01B9015ECF123561F4E091CB
:103990009501F0919601459154915A8349838A810A
:1039A000DBDB898136CE1434D9F4BFDB682F8091FC
:1039B000950190919601A0919701B0919801B695CB
:1039C000A79597958795FBD1809195019091960148
:1039D000A0919701B09198010296A11DB11D5ACEF8
:1039E0001436F1F4C0909501D0909601E0909701C3
:1039F000F0909801D701C601B695A7959795879540
:103A0000D6D1AADB52E0C50ED11CE11CF11CC0923C
:103A10009501D0929601E0929701F0929801FACD2B
:103A20001B3109F4F7CDA5CE8EB3882369F08091C0
:103A3000E80080FFF9CF8091E8008E778093E8005E
:103A4000F4CD8EB38111F1CD8EB3882309F4B9CDB5
:103A50008091E9008F7089839091EC00892F8170AB
:103A600090FD80E89981982B99831092E9008091CC
:103A7000E80083FF70C08AE991E0FC010196209183
:103A8000F1002083A1E0823A9A07B9F780919A0168
:103A90008F778132E9F563B880E289B916B88091F1
:103AA0009B01813211F1823209F478C0803281F5B4
:103AB00080919A01813261F58091E800877F80933F
:103AC000E800E0E0F1E087E090E0009709F048C00E
:103AD0008091E80080FD05C08EB3882311F0853009
:103AE000B9F78091E8008E7711C080919A01813AF0
:103AF00079F48091E800877F8093E80067E070E0C8
:103B000080E091E040DB8091E8008B778093E800D3
:103B10008091E80083FF11C090919A0180919B01F0
:103B2000853009F4C6C008F045C0282F2D7F21300C
:103B300009F487C0882309F463C08091E80083FFFB
:103B40000AC08091E800877F8093E8008091EB00B5
:103B500080628093EB0059815F705093E9002FCD14
:103B60002EB3222309F4BDCF253009F4BACF20911A
:103B7000E80023FDB6CF2091E80022FFA6CF2091D8
:103B8000F200222329F02091F10021930197B9F747
:103B90002091E8002B772093E80097CF80919A013D
:103BA000813209F0B5CF8091E800877F8093E800EB
:103BB00041DBAECF883009F4C3C0893009F4CDC0F1
:103BC000863009F0BACF9058923008F0B6CF809185
:103BD0009C01F0919D01FD831E822D813E8122304A
:103BE000310509F49EC02330310509F483C021302A
:103BF000310509F0A2CF62E170E08AE791E085C06B
:103C0000903891F0923809F098CF80919E018F7092
:103C1000853008F092CF8093E9008091EB0085FB1E
:103C2000882780F91092E9009091E800977F90939F
:103C3000E8008093F1001092F1008091E8008E7707
:103C400021C0923009F079CF90919C01911115C05B
:103C500090919E019F702FEF290F243008F06DCFB7
:103C60009093E9002091EB0020FF07C0833071F4AE
:103C70008091EB0080628093EB001092E9008091CC
:103C8000E800877F8093E800D5DA57CF8091EB007A
:103C900080618093EB0021E030E001C0220F9A9513
:103CA000EAF72093EA001092EA008091EB00886026
:103CB000E2CF911142CFB0919C01BF77BF83809139
:103CC000E30080788B2B8093E3008091E800877F6E
:103CD0008093E800AFDA8091E80080FFFCCF80910C
:103CE000E30080688093E300EF8182E0E11183E0EC
:103CF0008EBB23CF8823D1F08130E9F0823009F0E8
:103D00001CCF62E170E088E091E02091E800277F1D
:103D10002093E80038DA8091E8008B778093E80000
:103D20000CCF6EE370E08CE391E0EFCF64E070E0E5
:103D30008CE191E0EACF6AE170E080E291E0E5CFCA
:103D4000903809F0FACE8091E800877F8093E800F0
:103D5000809199018093F10070CF9111EECE309156
:103D60009C013F83323008F0E8CE8091E800877FE5
:103D70008093E800309399015DDA4F81442371F01C
:103D80007EBA42E061EC82E072DA42E161E883E00F
:103D90006EDA42E160E884E06ADACFCE8091E30037
:103DA00087FD03C081E08EBBECCF84E0FCCFF999A6
:103DB000FECF92BD81BDF89A992780B50895262F30
:103DC000F999FECF92BD81BDF89A019700B4021611
:103DD00039F01FBA20BD0FB6F894FA9AF99A0FBEBF
:063DE0000895F894FFCFE6
:103DE600000000000000080112034C0055004600C8
:103DF600410020004300440043000000040309047E
:103E06001A034C0055004600410020004C00690092
:103E160062007200610072007900000009023E0033
:103E2600020100803209040000010202010005249B
:103E3600001001042402020524060001070582037E
:103E46000800FF09040100020A0000000705040239
:103E5600100005070583021000051201100102007B
:103E66000008EB034A200001010200014C554641BF
:043E7600434443007E
:103FA0008BC9B4C9DDC9EFC972C9F3C9F9C908958C
:083FB000089508950895089595
:103FE000DFCFDFCFDFCFDFCFDFCFDFCFDFCFDFCF61
:083FF000DFCFDFCFDFCFDFCF11
:083FF8000030000000DFFBDCDB
:0400000300003000C9
:00000001FF
