:1070000055C00000A6C00000A4C00000A2C000003F
:10701000A0C000009EC000009CC000009AC00000FC
:1070200098C0000096C000008AC2000092C0000014
:1070300090C000008EC000008CC000008AC000001C
:1070400088C0000086C0000084C0000082C000002C
:10705000D2C000007EC000007CC000007AC00000EA
:1070600078C0000076C0000074C0000072C000004C
:1070700070C000006EC000006CC000006AC000005C
:1070800068C0000066C0000064C0000062C000006C
:1070900060C000005EC000005CC000005AC000007C
:1070A00058C0000056C0000054C0000011241FBE8C
:1070B000CFEFDAE0DEBFCDBFD091FF0A1092FF0A1A
:1070C000C4B714BE0FB6F894A8958091600088618B
:1070D00080936000109260000FBE3CD0F0E0E0E0D2
:1070E00085919491019601F1C1FF13C0D737E1F06A
:1070F00087E78093FF0A8FEF9EE924E2815090405A
:107100002040E1F700C000001092FF0A0C9400003C
:107110000BC0C0FF03C00C94000006C0C3FF04C036
:10712000D73711F00C94000011E0A0E0B1E0E6E6E2
:10713000FEE702C005900D92A836B107D9F721E00D
:10714000A8E6B1E001C01D92A338B207E1F799D2D9
:1071500088C656CF2098289855985D983F984798AC
:107160000895815098F09091F3002091F200392F0A
:10717000232B69F49091E8009B7F9093E800909115
:10718000E80092FDEECF9EB39111F9CF0895909152
:10719000F100E7CFE1E7F1E082819381582F492F99
:1071A000848195819827892798275093700140936F
:1071B0006F0190936E0180936D01089580917A0123
:1071C00087FF11C08091E80082FF06C08091E8002F
:1071D0008B7F8093E80003C08EB38111F3CF0895B5
:1071E0008EB38823E1F38091E80080FFF9CF80918E
:1071F000E8008E7FEECF1F921FB61F9211248F934F
:1072000081E083B980E289B916B88F911F901FBEC3
:107210001F901895462F572FBC01411580E758073E
:107220006105710500F5DB01CA018F779927AA274F
:10723000BB27892B8A2B8B2B09F008958FB7F894E5
:1072400007B600FCFDCFF999FECF93E0FA019093C9
:107250005700E89507B600FCFDCF91E190935700E9
:10726000E8958FBF08950895CF92DF92EF92FF9235
:107270001F93CF93DF9300D000D000D00F92CDB7F3
:10728000DEB78091710190916801992309F445C09E
:10729000843039F580917201811126C0809173018B
:1072A0008F3F11F580917201833009F0A5C081E014
:1072B0008093820180917301E0917701F0917801D0
:1072C0003097E9F4811190C01092FF0A88E19CE0A8
:1072D0000FB6F894A895809360000FBE909360005D
:1072E0000EC0853009F444C08AE08093000183E039
:1072F00080936A018091EB0080628093EB00279677
:107300000FB6F894DEBF0FBECDBFDF91CF911F91B6
:10731000FF90EF90DF90CF900895833009F441C043
:10732000F0F4813061F710917201123040F732DFD2
:10733000111111C020916F01309170013D832C8398
:1073400080916C01282F30E03F832E836C817D81FA
:107350008E819F815FDF85E080930001D0CF8630F2
:1073600009F47EC060F6843009F49CCF853039F68C
:107370008091630190916401A091650189839A8352
:10738000AB838091730190917201911150C0833051
:1073900008F057C0FE01E80FF11D818180936B0159
:1073A000AECF80917201982F9D7F19F4F3DE89E0B2
:1073B000D3CF813009F0A3CFF0E0E0E084918F3F9C
:1073C00069F010926C01F0937001E0936F018AE014
:1073D0008093000185E080936A0191CF3196E11599
:1073E00030E7F30759F78BCF85919491019609F017
:1073F00086CF1092010183CF811181CF80917301DB
:107400008F3F09F07CCFC12CD12C7601C701B6018A
:1074100001DF30E8C30ED11CE11CF11CC11480E770
:10742000D806E104F10491F71092680168CF913019
:1074300009F065CF803691F048F4803359F08133FC
:1074400059F08AE08093000188E0C5CF8136C9F702
:1074500087E8A4CF88E5A2CF8EE1A0CF85E99ECFB3
:1074600080917201833009F04ACF809173018111BC
:1074700046CF8091740180936C0141CF462F572FE6
:10748000BC01411580E758076105710500F5DB0176
:10749000CA018F779927AA27BB27892B8A2B8B2B89
:1074A00009F008958FB7F89407B600FCFDCFF9995D
:1074B000FECF95E0FA0190935700E89507B600FCDF
:1074C000FDCF91E190935700E8958FBF08950895FF
:1074D0000F931F938B01CA0107B600FCFDCFF999EA
:1074E000FECF41E0F8010C0140935700E8951124CC
:1074F0001F910F910895FC0181E2809357008491C0
:107500000895FC0189E0809357008491089589E0F3
:10751000E1E0F0E080935700849108959FB7F894DC
:1075200007B600FCFDCFF999FECF809529E0E1E098
:10753000F0E0082E20935700E8959FBF08950F9222
:107540000FB60F921F9211248F938091DA0080FF63
:1075500016C08091D80080FF12C08091DA008E7F23
:107560008093DA008091D90080FF80C080E189BDDE
:1075700082E189BD09B400FEFDCF81E08EBB809120
:10758000E10080FF16C08091E20080FF12C0809170
:10759000E2008E7F8093E2008091E2008061809320
:1075A000E2008091D80080628093D80019BC85E009
:1075B0008EBB8091E10084FF25C08091E20084FFB2
:1075C00021C080E189BD82E189BD09B400FEFDCF03
:1075D0008091D8008F7D8093D8008091E1008F7ECC
:1075E0008093E1008091E2008F7E8093E2008091A1
:1075F000E20081608093E200809179018823C9F1E3
:1076000084E08EBB8091E10083FF2AC08091E2007C
:1076100083FF26C08091E100877F8093E10082E0B4
:107620008EBB109279018091E1008E7F8093E10002
:107630008091E2008E7F8093E2008091E200806181
:107640008093E2008091EB0081608093EB001092C8
:10765000ED001092EC0082E28093ED008091EE004C
:107660008F911F900F900FBE0F90189519BC1EBAE6
:1076700086CF8091E30087FD02C081E0C2CF83E026
:10768000C0CFCDB7DEB72A970FB6F894DEBF0FBED6
:10769000CDBF1092FF0A80E890E00FB6F894809377
:1076A0006100909361000FBE81E085BF92E095BFBD
:1076B0009091D8009F7E9093D8009091D7009160D0
:1076C0009093D70094E092BF809369019091D80085
:1076D0009E7F9093D8001092E2001092DA001092F0
:1076E000E1009091D8009F779093D8009091D800B6
:1076F00090689093D8009091D8009F7D9093D80087
:1077000019BC1EBA109279019091E0009B7F909372
:10771000E0009091D80091609093D8009091EB0098
:1077200091609093EB001092ED001092EC0092E2C9
:107730009093ED009091EE009091E1009E7F9093E8
:10774000E1009091E20091609093E2009091E2005C
:1077500098609093E2009091E0009E7F9093E0000B
:107760009091D80090619093D800209A289A559AC9
:107770005D9A3F9A479880936F0083E080938100E1
:1077800028985D9A47987894CC24C39460E2962E0A
:1077900077E7E72E71E0F72E82E0D82E94E0892E6D
:1077A000909101018091820191111BC0811119C03A
:1077B0008FE99FE00197F1F700C000001092FF0AE7
:1077C0008091E00081608093E000C4DC88E19CE06F
:1077D0000FB6F894A895809360000FBE9093600058
:1077E000FFCF2EB3222301F32091E80023FFDCCF4B
:1077F0008AE791E0FC0101962091F100208321E0CD
:1078000082389207B9F780917A018F778132C9F473
:10781000C3B899B816B88091800190918101909376
:1078200078018093770180917B01843009F4FCC159
:1078300050F5823009F436C1833009F4D7C1813064
:1078400079F18091E80083FF0FC080917A019091D7
:107850007B01963009F452C208F0FFC1992309F464
:1078600018C2953009F429C28091E80083FF98CFAF
:107870008091E800877F8093E8008091EB00806230
:107880008093EB0089CF853009F4D7C18630C9F6E3
:107890008091E800877F8093E800D0920001CBC1FF
:1078A0008091E800877F8093E8008091820188239F
:1078B00019F0DADC109282018091770190917801C1
:1078C0000097B1F480910001853041F480917701F7
:1078D00090917801892B91F5D09200018091E80078
:1078E0008B7F8093E800A7C12EB3222309F4A9CF90
:1078F0002091E80022FFF8CF2091F1002093710140
:1079000001979093780180937701E2E7F1E09091FD
:10791000F3008091F200892B79F08091F10081933E
:1079200080917701909178010197909378018093ED
:107930007701EE16FF0659F797DCC4CF8AE111DC18
:10794000A0906F01B09070018A2D8F710ADC809138
:107950006D0190916E0101968A199B099A83898322
:107960008091720181118CC0A981BA81B695A795C9
:10797000BA87A987BA82A98280916C01282F30E04A
:107980003C832B83A9807A806B805C80B12C8985B5
:107990009A85892B59F480916D0190916E01909395
:1079A000700180936F0180E1DCDB98CF9091F30050
:1079B0008091F200892BB1F189859A8501979A8788
:1079C00089874091F1005091F10069817A818B8122
:1079D0009C817EDDB39489819A81AB81BC810296C2
:1079E000A11DB11D8D839E83AF83B88789839A8340
:1079F000AB83BC8390E4B91222C06A2D772D862D0B
:107A0000952D3CDD29853A85232B09F4C0CF6D8166
:107A10007E818F819885FEDBB12CAD807E806F806A
:107A20005884B5CF8091E8008B7F8093E8008091E7
:107A3000E80082FDC1CF8EB38111F9CF02CFA985B5
:107A4000BA85AB2B09F0A3CFD8CF9091F3008091EA
:107A5000F200892BD1F0A981BA811197BA83A98349
:107A60006091F10080916F0190917001E8D1809157
:107A70006F019091700101969093700180936F0156
:107A800029813A81232B09F78ECF8091E8008B7FE3
:107A90008093E8008091E80082FDDDCF8EB38111F4
:107AA000F9CFCFCE8091E800877F8093E800809166
:107AB000E80080FF13C0809100018930B1F08A3066
:107AC00089F480917201813069F490916F01809105
:107AD00070019093F1008093F10036C08EB3811154
:107AE000E6CFAFCE80916B01F6CF20916F01309140
:107AF000700180916D0190916E010196821B930B34
:107B00009A83898380917201811141C0A981BA81D0
:107B1000B695A795BA83A983C90120916C01A22FBC
:107B2000B0E029813A81215031093A8329832F3FDE
:107B30003F4F71F480916D0190916E0190937001AF
:107B400080936F01D09200018091E8008E7FC9CEB2
:107B50003091F3002091F2002032310559F0FC0100
:107B6000259134912093F1003093F1000296A11DEC
:107B7000B11DD7CF2091E8002E7F2093E8002091FF
:107B8000E80020FDECCF2EB32111F9CF5ACE823080
:107B9000C9F6A981BA81AB2BA9F29091F30080912B
:107BA000F2008097B1F080916F01909170013FD108
:107BB0008093F10080916F019091700101969093F4
:107BC000700180936F0189819A8101979A838983DB
:107BD000E0CF8091E8008E7F8093E8008091E800FC
:107BE00080FDE1CF8EB38111F9CF2BCE8091E800DB
:107BF000877F8093E8008091E80080FF11C080912A
:107C00006A018093F1001092F1001092F10010923D
:107C1000F100809100018093F1001092F10094CF67
:107C20008EB38111E8CF0DCE8091E800877F8093DD
:107C3000E80010926A01C2DA04CE8091E800877FE2
:107C40008093E8008091E80080FF03C080910001EC
:107C500042CF8EB38111F6CFF4CD983009F4D2C063
:107C6000993009F001CE8111FFCD30917C0139832B
:107C7000323008F0F9CD8091E800877F8093E800EA
:107C8000309379019BDA4981442309F4C8C08EBA44
:107C9000EBCD8D7F803809F0E7CD8091E800877FBC
:107CA0008093E8001092F1001092F1008091E800BA
:107CB0008E7F8093E80082DAD7CD8111D5CDB09147
:107CC0007C01BF77B9838091E30080788B2B809310
:107CD000E3008091E800877F8093E8006FDA80916D
:107CE000E80080FFFCCF8091E30080688093E30090
:107CF000298182E0211183E08EBBB6CD805882308D
:107D000008F0B2CD80917C0100917D0110E002303D
:107D10001105E9F10330110549F00130110509F0B1
:107D2000A3CD82E190E0E1E5F1E00BC08823A1F171
:107D30008130B9F1823009F097CD82E190E0E2E044
:107D4000F1E02091E800277F2093E8002091800156
:107D5000309181018217930708F49C0140E02115BE
:107D6000310521F5411122C08091E80082FD09C052
:107D70008EB3882331F0853021F08091E80083FFB5
:107D8000F3CF8091E8008B7F8093E8006DCD8BE18D
:107D900090E0E6E3F1E0D5CF84E090E0E6E1F1E0C9
:107DA000D0CF8AE190E0EAE1F1E0CBCF8EB3882337
:107DB00041F3853031F38091E80083FDE2CF80917B
:107DC000E80082FDD1CF8091E80080FFC8CF90917C
:107DD000F3008091F2002115310519F080329105F0
:107DE00050F041E0809709F040E08091E8008E7FFC
:107DF0008093E800B4CF41914093F10021503109C4
:107E00000196E9CF803809F02FCD8091E800877F77
:107E10008093E800809179018093F10047CF8091B1
:107E2000E30087FD02C081E067CF84E065CFF99968
:107E3000FECF92BD81BDF89A992780B50895262F6F
:107E4000F999FECF92BD81BDF89A019700B4021650
:107E500039F01FBA20BD0FB6F894FA9AF99A0FBEFE
:067E60000895F894FFCF25
:107E6600020112034C005500460041002000440068
:107E7600460055000000040309041A034C0055008F
:107E86004600410020004C0069006200720061005B
:107E960072007900000009021B000101008032090E
:107EA60004000000FE0102000921030000000C107E
:107EB600011201100100000020EB03F42F00000165
:087EC60002000120DCFB0000BA
:107FA00039C96CCA95CAA7CAACCAB1CAB7CA0895BA
:087FB000089508950895089555
:107FE000DFCFDFCFDFCFDFCFDFCFDFCFDFCFDFCF21
:087FF000DFCFDFCFDFCFDFCFD1
:087FF8000070000010DFFBDC4B
:040000030000700089
:00000001FF
